{
  "contractName": "TendersApp",
  "abi": [
    {
      "inputs": [],
      "payable": false,
      "stateMutability": "nonpayable",
      "type": "constructor"
    },
    {
      "constant": true,
      "inputs": [
        {
          "internalType": "uint256",
          "name": "",
          "type": "uint256"
        }
      ],
      "name": "bids",
      "outputs": [
        {
          "internalType": "uint256",
          "name": "tenderId",
          "type": "uint256"
        },
        {
          "internalType": "uint256",
          "name": "bidId",
          "type": "uint256"
        },
        {
          "internalType": "address",
          "name": "contractorAddress",
          "type": "address"
        },
        {
          "internalType": "string",
          "name": "quotationClause",
          "type": "string"
        },
        {
          "internalType": "uint256",
          "name": "numberOfWorkingDays",
          "type": "uint256"
        },
        {
          "internalType": "uint256",
          "name": "proposalAmount",
          "type": "uint256"
        },
        {
          "internalType": "enum TendersApp.ProposalStatus",
          "name": "status",
          "type": "uint8"
        }
      ],
      "payable": false,
      "stateMutability": "view",
      "type": "function"
    },
    {
      "constant": true,
      "inputs": [],
      "name": "bidsCounter",
      "outputs": [
        {
          "internalType": "uint256",
          "name": "",
          "type": "uint256"
        }
      ],
      "payable": false,
      "stateMutability": "view",
      "type": "function"
    },
    {
      "constant": true,
      "inputs": [],
      "name": "tenderCounter",
      "outputs": [
        {
          "internalType": "uint256",
          "name": "",
          "type": "uint256"
        }
      ],
      "payable": false,
      "stateMutability": "view",
      "type": "function"
    },
    {
      "constant": true,
      "inputs": [
        {
          "internalType": "uint256",
          "name": "",
          "type": "uint256"
        }
      ],
      "name": "tenders",
      "outputs": [
        {
          "internalType": "string",
          "name": "tenderName",
          "type": "string"
        },
        {
          "internalType": "uint256",
          "name": "tenderId",
          "type": "uint256"
        },
        {
          "internalType": "string",
          "name": "bidSubmissionClosingDate",
          "type": "string"
        },
        {
          "internalType": "string",
          "name": "bidOpeningDate",
          "type": "string"
        },
        {
          "internalType": "string",
          "name": "tasks",
          "type": "string"
        },
        {
          "internalType": "string",
          "name": "constraints",
          "type": "string"
        },
        {
          "internalType": "uint256",
          "name": "finalTenderAmount",
          "type": "uint256"
        },
        {
          "internalType": "address",
          "name": "tenderOwner",
          "type": "address"
        }
      ],
      "payable": false,
      "stateMutability": "view",
      "type": "function"
    },
    {
      "constant": false,
      "inputs": [
        {
          "internalType": "string",
          "name": "_tenderName",
          "type": "string"
        },
        {
          "internalType": "uint256",
          "name": "_tenderId",
          "type": "uint256"
        },
        {
          "internalType": "string",
          "name": "_bidSubmissionClosingDate",
          "type": "string"
        },
        {
          "internalType": "string",
          "name": "_bidOpeningDate",
          "type": "string"
        },
        {
          "internalType": "string",
          "name": "_tasks",
          "type": "string"
        },
        {
          "internalType": "string",
          "name": "_constraints",
          "type": "string"
        },
        {
          "internalType": "uint256",
          "name": "_finalTenderAmount",
          "type": "uint256"
        }
      ],
      "name": "createTender",
      "outputs": [],
      "payable": false,
      "stateMutability": "nonpayable",
      "type": "function"
    },
    {
      "constant": false,
      "inputs": [
        {
          "internalType": "uint256",
          "name": "_tenderId",
          "type": "uint256"
        },
        {
          "internalType": "uint256",
          "name": "_bidId",
          "type": "uint256"
        },
        {
          "internalType": "string",
          "name": "_quotationClause",
          "type": "string"
        },
        {
          "internalType": "uint256",
          "name": "_numberOfWorkingDays",
          "type": "uint256"
        },
        {
          "internalType": "uint256",
          "name": "_proposalAmount",
          "type": "uint256"
        }
      ],
      "name": "placeBid",
      "outputs": [],
      "payable": false,
      "stateMutability": "nonpayable",
      "type": "function"
    },
    {
      "constant": false,
      "inputs": [
        {
          "internalType": "uint256",
          "name": "_tenderid",
          "type": "uint256"
        },
        {
          "internalType": "uint256",
          "name": "_bid",
          "type": "uint256"
        }
      ],
      "name": "completeTender",
      "outputs": [],
      "payable": false,
      "stateMutability": "nonpayable",
      "type": "function"
    },
    {
      "constant": true,
      "inputs": [
        {
          "internalType": "uint256",
          "name": "_tenderid",
          "type": "uint256"
        }
      ],
      "name": "getTenderBids",
      "outputs": [
        {
          "internalType": "uint256",
          "name": "",
          "type": "uint256"
        },
        {
          "internalType": "address",
          "name": "",
          "type": "address"
        },
        {
          "internalType": "string",
          "name": "",
          "type": "string"
        },
        {
          "internalType": "uint256",
          "name": "",
          "type": "uint256"
        },
        {
          "internalType": "uint256",
          "name": "",
          "type": "uint256"
        }
      ],
      "payable": false,
      "stateMutability": "view",
      "type": "function"
    }
  ],
  "bytecode": "0x608060405234801561001057600080fd5b506000600281905550600060038190555061156d806100306000396000f3fe608060405234801561001057600080fd5b50600436106100885760003560e01c8063988da3ad1161005b578063988da3ad14610486578063c0c5a1dc146107b1578063caee45c814610894578063f7656287146108b257610088565b806330d2210c1461008d5780634423c5f1146100ab578063465e1def146101b657806369f188ac1461044e575b600080fd5b6100956109a1565b6040518082815260200191505060405180910390f35b6100d7600480360360208110156100c157600080fd5b81019080803590602001909291905050506109a7565b604051808881526020018781526020018673ffffffffffffffffffffffffffffffffffffffff1673ffffffffffffffffffffffffffffffffffffffff1681526020018060200185815260200184815260200183600281111561013557fe5b60ff168152602001828103825286818151815260200191508051906020019080838360005b8381101561017557808201518184015260208101905061015a565b50505050905090810190601f1680156101a25780820380516001836020036101000a031916815260200191505b509850505050505050505060405180910390f35b6101e2600480360360208110156101cc57600080fd5b8101908080359060200190929190505050610aae565b6040518080602001898152602001806020018060200180602001806020018881526020018773ffffffffffffffffffffffffffffffffffffffff1673ffffffffffffffffffffffffffffffffffffffff16815260200186810386528e818151815260200191508051906020019080838360005b83811015610270578082015181840152602081019050610255565b50505050905090810190601f16801561029d5780820380516001836020036101000a031916815260200191505b5086810385528c818151815260200191508051906020019080838360005b838110156102d65780820151818401526020810190506102bb565b50505050905090810190601f1680156103035780820380516001836020036101000a031916815260200191505b5086810384528b818151815260200191508051906020019080838360005b8381101561033c578082015181840152602081019050610321565b50505050905090810190601f1680156103695780820380516001836020036101000a031916815260200191505b5086810383528a818151815260200191508051906020019080838360005b838110156103a2578082015181840152602081019050610387565b50505050905090810190601f1680156103cf5780820380516001836020036101000a031916815260200191505b50868103825289818151815260200191508051906020019080838360005b838110156104085780820151818401526020810190506103ed565b50505050905090810190601f1680156104355780820380516001836020036101000a031916815260200191505b509d505050505050505050505050505060405180910390f35b6104846004803603604081101561046457600080fd5b810190808035906020019092919080359060200190929190505050610e0e565b005b6107af600480360360e081101561049c57600080fd5b81019080803590602001906401000000008111156104b957600080fd5b8201836020820111156104cb57600080fd5b803590602001918460018302840111640100000000831117156104ed57600080fd5b91908080601f016020809104026020016040519081016040528093929190818152602001838380828437600081840152601f19601f820116905080830192505050505050509192919290803590602001909291908035906020019064010000000081111561055a57600080fd5b82018360208201111561056c57600080fd5b8035906020019184600183028401116401000000008311171561058e57600080fd5b91908080601f016020809104026020016040519081016040528093929190818152602001838380828437600081840152601f19601f820116905080830192505050505050509192919290803590602001906401000000008111156105f157600080fd5b82018360208201111561060357600080fd5b8035906020019184600183028401116401000000008311171561062557600080fd5b91908080601f016020809104026020016040519081016040528093929190818152602001838380828437600081840152601f19601f8201169050808301925050505050505091929192908035906020019064010000000081111561068857600080fd5b82018360208201111561069a57600080fd5b803590602001918460018302840111640100000000831117156106bc57600080fd5b91908080601f016020809104026020016040519081016040528093929190818152602001838380828437600081840152601f19601f8201169050808301925050505050505091929192908035906020019064010000000081111561071f57600080fd5b82018360208201111561073157600080fd5b8035906020019184600183028401116401000000008311171561075357600080fd5b91908080601f016020809104026020016040519081016040528093929190818152602001838380828437600081840152601f19601f82011690508083019250505050505050919291929080359060200190929190505050611026565b005b610892600480360360a08110156107c757600080fd5b810190808035906020019092919080359060200190929190803590602001906401000000008111156107f857600080fd5b82018360208201111561080a57600080fd5b8035906020019184600183028401116401000000008311171561082c57600080fd5b91908080601f016020809104026020016040519081016040528093929190818152602001838380828437600081840152601f19601f8201169050808301925050505050505091929192908035906020019092919080359060200190929190505050611194565b005b61089c6112cf565b6040518082815260200191505060405180910390f35b6108de600480360360208110156108c857600080fd5b81019080803590602001909291905050506112d5565b604051808681526020018573ffffffffffffffffffffffffffffffffffffffff1673ffffffffffffffffffffffffffffffffffffffff16815260200180602001848152602001838152602001828103825285818151815260200191508051906020019080838360005b83811015610962578082015181840152602081019050610947565b50505050905090810190601f16801561098f5780820380516001836020036101000a031916815260200191505b50965050505050505060405180910390f35b60025481565b60016020528060005260406000206000915090508060000154908060010154908060020160009054906101000a900473ffffffffffffffffffffffffffffffffffffffff1690806003018054600181600116156101000203166002900480601f016020809104026020016040519081016040528092919081815260200182805460018160011615610100020316600290048015610a855780601f10610a5a57610100808354040283529160200191610a85565b820191906000526020600020905b815481529060010190602001808311610a6857829003601f168201915b5050505050908060040154908060050154908060060160009054906101000a900460ff16905087565b6000602052806000526040600020600091509050806000018054600181600116156101000203166002900480601f016020809104026020016040519081016040528092919081815260200182805460018160011615610100020316600290048015610b5a5780601f10610b2f57610100808354040283529160200191610b5a565b820191906000526020600020905b815481529060010190602001808311610b3d57829003601f168201915b505050505090806001015490806002018054600181600116156101000203166002900480601f016020809104026020016040519081016040528092919081815260200182805460018160011615610100020316600290048015610bfe5780601f10610bd357610100808354040283529160200191610bfe565b820191906000526020600020905b815481529060010190602001808311610be157829003601f168201915b505050505090806003018054600181600116156101000203166002900480601f016020809104026020016040519081016040528092919081815260200182805460018160011615610100020316600290048015610c9c5780601f10610c7157610100808354040283529160200191610c9c565b820191906000526020600020905b815481529060010190602001808311610c7f57829003601f168201915b505050505090806004018054600181600116156101000203166002900480601f016020809104026020016040519081016040528092919081815260200182805460018160011615610100020316600290048015610d3a5780601f10610d0f57610100808354040283529160200191610d3a565b820191906000526020600020905b815481529060010190602001808311610d1d57829003601f168201915b505050505090806005018054600181600116156101000203166002900480601f016020809104026020016040519081016040528092919081815260200182805460018160011615610100020316600290048015610dd85780601f10610dad57610100808354040283529160200191610dd8565b820191906000526020600020905b815481529060010190602001808311610dbb57829003601f168201915b5050505050908060060154908060070160009054906101000a900473ffffffffffffffffffffffffffffffffffffffff16905088565b816000600190505b6002548111610f035781600080838152602001908152602001600020600101541415610ef6573373ffffffffffffffffffffffffffffffffffffffff1660008083815260200190815260200160002060070160009054906101000a900473ffffffffffffffffffffffffffffffffffffffff1673ffffffffffffffffffffffffffffffffffffffff1614610ef5576040517f08c379a00000000000000000000000000000000000000000000000000000000081526004018080602001828103825260328152602001806115076032913960400191505060405180910390fd5b5b8080600101915050610e16565b506000600190505b60025481116110205783600080838152602001908152602001600020600101541415611013576000600190505b6003548111611011578360016000838152602001908152602001600020600101541415610fcb57600180600083815260200190815260200160002060060160006101000a81548160ff02191690836002811115610f9157fe5b0217905550600160008381526020019081526020016000206005015460008084815260200190815260200160002060060181905550611004565b60026001600084815260200190815260200160002060060160006101000a81548160ff02191690836002811115610ffe57fe5b02179055505b8080600101915050610f38565b505b8080600101915050610f0b565b50505050565b6002600081548092919060010191905055506040518061010001604052808881526020018781526020018681526020018581526020018481526020018381526020018281526020013373ffffffffffffffffffffffffffffffffffffffff16815250600080600254815260200190815260200160002060008201518160000190805190602001906110b8929190611461565b506020820151816001015560408201518160020190805190602001906110df929190611461565b5060608201518160030190805190602001906110fc929190611461565b506080820151816004019080519060200190611119929190611461565b5060a0820151816005019080519060200190611136929190611461565b5060c0820151816006015560e08201518160070160006101000a81548173ffffffffffffffffffffffffffffffffffffffff021916908373ffffffffffffffffffffffffffffffffffffffff16021790555090505050505050505050565b6003600081548092919060010191905055506040518060e001604052808681526020018581526020013373ffffffffffffffffffffffffffffffffffffffff168152602001848152602001838152602001828152602001600060028111156111f857fe5b815250600160006003548152602001908152602001600020600082015181600001556020820151816001015560408201518160020160006101000a81548173ffffffffffffffffffffffffffffffffffffffff021916908373ffffffffffffffffffffffffffffffffffffffff1602179055506060820151816003019080519060200190611287929190611461565b506080820151816004015560a0820151816005015560c08201518160060160006101000a81548160ff021916908360028111156112c057fe5b02179055509050505050505050565b60035481565b60008060606000806000600190505b60025481116114565786600160008381526020019081526020016000206000015414156114495760016000828152602001908152602001600020600101546001600083815260200190815260200160002060020160009054906101000a900473ffffffffffffffffffffffffffffffffffffffff166001600084815260200190815260200160002060030160016000858152602001908152602001600020600401546001600086815260200190815260200160002060050154828054600181600116156101000203166002900480601f0160208091040260200160405190810160405280929190818152602001828054600181600116156101000203166002900480156114325780601f1061140757610100808354040283529160200191611432565b820191906000526020600020905b81548152906001019060200180831161141557829003601f168201915b505050505092509550955095509550955050611458565b80806001019150506112e4565b505b91939590929450565b828054600181600116156101000203166002900490600052602060002090601f016020900481019282601f106114a257805160ff19168380011785556114d0565b828001600101855582156114d0579182015b828111156114cf5782518255916020019190600101906114b4565b5b5090506114dd91906114e1565b5090565b61150391905b808211156114ff5760008160009055506001016114e7565b5090565b9056fe4f6e6c792054656e646572204f776e65722063616e20636c6f736520616e642063686f6f7365207468652077696e6e657273a265627a7a72315820c646aa2f1f9ed4b4a0e50b673fb377c186fd9c4a96fa41de106690b1215f222564736f6c63430005100032",
  "source": "// SPDX-License-Identifier: MIT\npragma solidity >=0.4.21 <0.7.0;\n\ncontract TendersApp {\n    constructor() public {\n        tenderCounter = 0;\n        bidsCounter = 0;\n    }\n\n    enum ProposalStatus {unverified, verified, rejected}\n\n    mapping(uint256 => tender) public tenders;\n    mapping(uint256 => bid) public bids;\n\n    uint256 public tenderCounter;\n    uint256 public bidsCounter;\n    modifier isTenderOwner(uint256 _tenderid) {\n        for (uint256 i = 1; i <= tenderCounter; i++) {\n            if (tenders[i].tenderId == _tenderid) {\n                require(\n                    tenders[i].tenderOwner == msg.sender,\n                    \"Only Tender Owner can close and choose the winners\"\n                );\n            }\n        }\n        _;\n    }\n    struct tender {\n        string tenderName;\n        uint256 tenderId;\n        string bidSubmissionClosingDate;\n        string bidOpeningDate;\n        string tasks;\n        string constraints;\n        uint256 finalTenderAmount;\n        address tenderOwner;\n    }\n\n    struct bid {\n        uint256 tenderId;\n        uint256 bidId;\n        address contractorAddress;\n        string quotationClause;\n        uint256 numberOfWorkingDays;\n        uint256 proposalAmount;\n        ProposalStatus status;\n    }\n\n    function createTender(\n        string memory _tenderName,\n        uint256 _tenderId,\n        string memory _bidSubmissionClosingDate,\n        string memory _bidOpeningDate,\n        string memory _tasks,\n        string memory _constraints,\n        uint256 _finalTenderAmount\n    ) public {\n        tenderCounter++;\n        tenders[tenderCounter] = tender(\n            _tenderName,\n            _tenderId,\n            _bidSubmissionClosingDate,\n            _bidOpeningDate,\n            _tasks,\n            _constraints,\n            _finalTenderAmount,\n            msg.sender\n        );\n    }\n\n    function placeBid(\n        uint256 _tenderId,\n        uint256 _bidId,\n        //address contractorAddress;\n        string memory _quotationClause,\n        uint256 _numberOfWorkingDays,\n        uint256 _proposalAmount\n    ) public {\n        bidsCounter++;\n        bids[bidsCounter] = bid(\n            _tenderId,\n            _bidId,\n            msg.sender, //address contractorAddress;\n            _quotationClause,\n            _numberOfWorkingDays,\n            _proposalAmount,\n            ProposalStatus.unverified\n        );\n    }\n\n    function completeTender(uint256 _tenderid, uint256 _bid)\n        public\n        isTenderOwner(_tenderid)\n    {\n        for (uint256 i = 1; i <= tenderCounter; i++) {\n            if (tenders[i].tenderId == _tenderid) {\n                for (uint256 j = 1;j <= bidsCounter; j++ ) {\n                    if (bids[j].bidId == _bid) {\n                        bids[j].status = ProposalStatus.verified;\n                        tenders[i].finalTenderAmount = bids[i].proposalAmount;\n                    } else {\n                        bids[i].status = ProposalStatus.rejected;\n                    }\n                }\n            }\n        }\n    }\n\n    function getTenderBids(uint256 _tenderid)\n        public view\n        returns (\n            uint256, //bidId;\n            address, //contractorAddress;\n            string memory, //quotationClause;\n            uint256, //numberOfWorkingDays;\n            uint256 //proposalAmount;\n        )\n    {\n        for (uint256 i = 1; i <= tenderCounter; i++) {\n            if (bids[i].tenderId == _tenderid) {\n                return (\n                    bids[i].bidId,\n                    bids[i].contractorAddress,\n                    bids[i].quotationClause,\n                    bids[i].numberOfWorkingDays,\n                    bids[i].proposalAmount\n                );\n            }\n        }\n    }\n}\n",
  "sourcePath": "/Users/macpro/Documents/usecases/tendersUseCase/contracts/TendersApp.sol",
  "compiler": {
    "name": "solc",
    "version": "0.5.16+commit.9c3226ce.Emscripten.clang"
  },
  "schemaVersion": "3.3.2",
  "updatedAt": "2021-01-30T18:47:35.568Z",
  "networkType": "ethereum",
  "devdoc": {
    "methods": {}
  },
  "userdoc": {
    "methods": {}
  }
}